:100000000C942A000C9434000C9434000C943400AA
:100010000C9434000C9434000C9434000C94340090
:100020000C9434000C9434000C9434000C94340080
:100030000C9434000C9434000C9434000C94340070
:100040000C9434000C9434000C9434000C94340060
:100050000C94340011241FBECFE5D8E0DEBFCDBF25
:100060000E9422010C9444010C9400004130B9F527
:100070008230A1F018F4813031F008958330C9F056
:10008000843011F1089581E090E002C0880F991F3B
:100090006A95E2F79AB3892B8ABB089581E090E0D4
:1000A00002C0880F991F6A95E2F797B3892B87BB27
:1000B000089581E090E002C0880F991F6A95E2F7E9
:1000C00094B3892B84BB089581E090E002C0880F2F
:1000D000991F6A95E2F791B3892B81BB089541116D
:1000E0003AC08230A9F018F4813031F0089583309D
:1000F000D9F0843029F1089581E090E002C0880FA2
:10010000991F6A95E2F780959AB389238ABB08956F
:1001100081E090E002C0880F991F6A95E2F7809510
:1001200097B3892387BB089581E090E002C0880FD0
:10013000991F6A95E2F7809594B3892384BB08954B
:1001400081E090E002C0880F991F6A95E2F78095E0
:1001500091B3892381BB08954130B9F58230A1F074
:1001600018F4813031F008958330C9F0843011F1F2
:10017000089581E090E002C0880F991F6A95E2F728
:100180009BB3892B8BBB089581E090E002C0880F60
:10019000991F6A95E2F798B3892B88BB089581E08F
:1001A00090E002C0880F991F6A95E2F795B3892BFA
:1001B00085BB089581E090E002C0880F991F6A9581
:1001C000E2F792B3892B82BB089541113AC0823085
:1001D000A9F018F4813031F008958330D9F08430DB
:1001E00029F1089581E090E002C0880F991F6A9577
:1001F000E2F780959BB389238BBB089581E090E063
:1002000002C0880F991F6A95E2F7809598B38923F9
:1002100088BB089581E090E002C0880F991F6A951D
:10022000E2F7809595B3892385BB089581E090E03E
:1002300002C0880F991F6A95E2F7809592B38923CF
:1002400082BB089541E060E081E00E94360041E019
:1002500060E081E00E94AC002FE38DE093E021504C
:1002600080409040E1F700C0000040E060E081E0A5
:100270000E94AC002FE38DE093E02150804090403D
:0C028000E1F700C00000E3CFF894FFCFCE
:00000001FF
