S0150000536576656E5F5365676D656E742E73726563DC
S11300000C942A000C943F000C943F000C943F0085
S11300100C943F000C943F000C943F000C943F0060
S11300200C943F000C943F000C943F000C943F0050
S11300300C943F000C943F000C943F000C943F0040
S11300400C943F000C943F000C943F000C943F0030
S11300500C943F0011241FBECFE5D8E0DEBFCDBF16
S113006010E0A0E6B0E0E0EEF1E002C005900D92F1
S1130070A437B107D9F70E9467000C94EE000C94E2
S11300800000823059F018F4813031F00895833043
S113009039F0843039F008956ABB089567BB089538
S11300A064BB089561BB0895823059F018F481301F
S11300B031F00895833039F0843039F008956BBB02
S11300C0089568BB089565BB089562BB08958BB31A
S11300D00E94780085B30E94780041E061E08BB310
S11300E00E947C0040E060E085B30E947C00F5CF74
S11300F061E00E9441000895CF93DF93CDB7DEB74E
S113010064970FB6F894DEBF0FBECDBFF82E062F4E
S1130110E42E8AE0E0E6F0E0DE01119601900D9213
S11301208A95E1F78AE0EAE6F0E0DE011B960190A9
S11301300D928A95E1F721E0E21229C024C0013032
S113014059F4E1E0F0E0EC0FFD1FE10FF11D6081D7
S11301508F2D0E9454000CC001110AC0EBE0F0E0A6
S1130160EC0FFD1FE10FF11D60818F2D0E945400E3
S11301708FE996E821E0815090402040E1F700C0EB
S113018000001F5F01C010E01A30C8F2D4CFE110A4
S1130190D2CF19E0013059F4E1E0F0E0EC0FFD1F9B
S11301A0E10FF11D60818F2D0E9454000CC00111DC
S11301B00AC0EBE0F0E0EC0FFD1FE10FF11D6081E0
S11301C08F2D0E9454008FE996E821E081509040E1
S11301D02040E1F700C000001150DCCFF894FFCFBD
S11301E0C0F9A4B0999282F880903F065B4F666D87
S10701F07D077F6F95
S9030000FC
