S0180000476C6F62616C5F496E746572727570742E737265638F
S11300000C942A000C94CD010C94F4010C941B0262
S11300100C943C000C943C000C943C000C943C006C
S11300200C943C000C943C000C943C000C943C005C
S11300300C943C000C943C000C943C000C943C004C
S11300400C943C000C943C000C943C000C943C003C
S11300500C943C0011241FBECFE5D8E0DEBFCDBF19
S113006020E0A0E6B0E001C01D92A636B207E1F799
S11300700E946F020C948E020C9400004130B9F57A
S11300808230A1F018F4813031F008958330C9F042
S1130090843011F1089581E090E002C0880F991F27
S11300A06A95E2F79AB3892B8ABB089581E090E0C0
S11300B002C0880F991F6A95E2F797B3892B87BB13
S11300C0089581E090E002C0880F991F6A95E2F7D5
S11300D094B3892B84BB089581E090E002C0880F1B
S11300E0991F6A95E2F791B3892B81BB0895411159
S11300F03AC08230A9F018F4813031F00895833089
S1130100D9F0843029F1089581E090E002C0880F8D
S1130110991F6A95E2F780959AB389238ABB08955B
S113012081E090E002C0880F991F6A95E2F78095FC
S113013097B3892387BB089581E090E002C0880FBC
S1130140991F6A95E2F7809594B3892384BB089537
S113015081E090E002C0880F991F6A95E2F78095CC
S113016091B3892381BB08954130B9F58230A1F060
S113017018F4813031F008958330C9F0843011F1DE
S1130180089581E090E002C0880F991F6A95E2F714
S11301909BB3892B8BBB089581E090E002C0880F4C
S11301A0991F6A95E2F798B3892B88BB089581E07B
S11301B090E002C0880F991F6A95E2F795B3892BE6
S11301C085BB089581E090E002C0880F991F6A956D
S11301D0E2F792B3892B82BB089541113AC0823071
S11301E0A9F018F4813031F008958330D9F08430C7
S11301F029F1089581E090E002C0880F991F6A9563
S1130200E2F780959BB389238BBB089581E090E04E
S113021002C0880F991F6A95E2F7809598B38923E5
S113022088BB089581E090E002C0880F991F6A9509
S1130230E2F7809595B3892385BB089581E090E02A
S113024002C0880F991F6A95E2F7809592B38923BB
S113025082BB08956623A1F0613019F5813041F025
S113026018F0823049F008958BB780648BBF0895ED
S11302708BB780688BBF08958BB780628BBF08955E
S1130280813041F018F0823049F008958BB78F7BAC
S11302908BBF08958BB78F778BBF08958BB78F7DF6
S11302A08BBF0895813049F120F0823009F449C0B0
S11302B00895613069F028F0623089F06330B1F05C
S11302C0089585B78E7F85BF85B7846085BF0895FF
S11302D085B7816085BF85B7846085BF089585B77C
S11302E0816085BF85B78B7F85BF089585B78E7F75
S11302F085BF85B78B7F85BF0895613069F028F08D
S1130300623089F06330B1F0089585B78B7F85BF83
S113031085B7886085BF089585B7846085BF85B734
S1130320886085BF089585B7846085BF85B7877F5A
S113033085BF089585B78B7F85BF85B7877F85BFC8
S11303400895662319F0613029F0089584B78F7BEE
S113035084BF089584B7806484BF089561157105CE
S1130360C1F0813051F018F0823069F014C07093FC
S113037065006093640081E0089570936300609366
S1130380620081E00895709361006093600081E0F1
S1130390089580E0089581E008951F920F920FB6AA
S11303A00F9211242F933F934F935F936F937F93F7
S11303B08F939F93AF93BF93EF93FF93E091640068
S11303C0F09165000995FF91EF91BF91AF919F91D5
S11303D08F917F916F915F914F913F912F910F90EA
S11303E00FBE0F901F9018951F920F920FB60F9289
S11303F011242F933F934F935F936F937F938F9326
S11304009F93AF93BF93EF93FF93E0916200F091BA
S113041063000995FF91EF91BF91AF919F918F91E7
S11304207F916F915F914F913F912F910F900FBEEC
S11304300F901F9018951F920F920FB60F921124D0
S11304402F933F934F935F936F937F938F939F93D8
S1130450AF93BF93EF93FF93E0916000F09161003D
S11304600995FF91EF91BF91AF919F918F917F91EA
S11304706F915F914F913F912F910F900FBE0F900D
S11304801F901895882331F0813039F48FB7806834
S11304908FBF08958FB78F778FBF089541E00E9473
S11304A03E000895CF93DF93C82FD62F41E00E94DA
S11304B0B4002FE78AE196E0215080409040E1F7B4
S11304C000C0000040E06D2F8C2F0E94B400DF912B
S11304D0CF91089560E081E00E945202089540E0C7
S11304E062E082E00E943E0041E062E082E00E941D
S11304F0B40060E081E00E944E0281E00E9442026A
S113050061E082E00E942A0160E082E00E945201E0
S11305106AE672E082E00E94AE01FFCFF894FFCF5A
S9030000FC
