S00B00004C43442E7372656346
S11300000C942A000C943F000C943F000C943F0085
S11300100C943F000C943F000C943F000C943F0060
S11300200C943F000C943F000C943F000C943F0050
S11300300C943F000C943F000C943F000C943F0040
S11300400C943F000C943F000C943F000C943F0030
S11300500C943F0011241FBECFE5D8E0DEBFCDBF16
S113006010E0A0E6B0E0E8EFF2E002C005900D92E7
S1130070AC37B107D9F70E9463010C947A010C9450
S11300800000CF93C82F41E060E083E00E94C700E6
S113009040E061E083E00E94C7006C2F81E00E9491
S11300A0500141E062E083E00E94C70089EF90E0E4
S11300B00197F1F700C0000040E062E083E00E9495
S11300C0C700CF910895CF93C82F40E060E083E04C
S11300D00E94C70040E061E083E00E94C7006C2FEB
S11300E081E00E94500141E062E083E00E94C70089
S11300F089EF90E00197F1F700C0000040E062E072
S113010083E00E94C700CF9108958FE097E20197A2
S1130110F1F700C0000088E30E94630089EF90E0DB
S11301200197F1F700C000008FE00E94630089EF9F
S113013090E00197F1F700C0000081E00E946300A5
S113014083EF91E00197F1F700C0000008950F9349
S11301501F93CF938C01C0E003C00E944100CF5F86
S1130160F801EC0FF11D80818111F7CFCF911F9120
S11301700F910895882329F0813021F490E4960F9B
S113018001C0962F80E8890F0E94630008954130D2
S1130190B9F58230A1F018F4813031F0089583303C
S11301A0C9F0843011F1089581E090E002C0880F15
S11301B0991F6A95E2F79BB3892B8BBB089581E065
S11301C090E002C0880F991F6A95E2F798B3892BD3
S11301D088BB089581E090E002C0880F991F6A955A
S11301E0E2F795B3892B85BB089581E090E002C0C6
S11301F0880F991F6A95E2F792B3892B82BB089501
S113020041113AC08230A9F018F4813031F00895D8
S11302108330D9F0843029F1089581E090E002C060
S1130220880F991F6A95E2F780959BB389238BBB4E
S1130230089581E090E002C0880F991F6A95E2F763
S1130240809598B3892388BB089581E090E002C02B
S1130250880F991F6A95E2F7809595B3892385BB2A
S1130260089581E090E002C0880F991F6A95E2F733
S1130270809592B3892382BB0895823059F018F493
S1130280813031F00895833039F0843039F00895A5
S11302906ABB089567BB089564BB089561BB089564
S11302A0823059F018F4813031F00895833039F0F8
S11302B0843039F008956BBB089568BB089565BB1D
S11302C0089562BB089561E081E00E943D0167E00A
S11302D083E00E943D010E94850080E690E00E9438
S11302E0A70062E081E00E94BA008FE690E00E94DD
S10B02F0A700FFCFF894FFCF33
S11302F8456D616E204F72616269202A5F2A005938
S10F03084F75722046617620456E670038
S9030000FC
