:100000000C942A000C943F000C943F000C943F0089
:100010000C943F000C943F000C943F000C943F0064
:100020000C943F000C943F000C943F000C943F0054
:100030000C943F000C943F000C943F000C943F0044
:100040000C943F000C943F000C943F000C943F0034
:100050000C943F0011241FBECFE5D8E0DEBFCDBF1A
:1000600010E0A0E6B0E0EEEAF3E002C005900D92E9
:10007000AA36B107D9F70E9453010C94D5010C940C
:1000800000004130B9F58230A1F018F4813031F030
:1000900008958330C9F0843011F1089581E090E033
:1000A00002C0880F991F6A95E2F79AB3892B8ABB21
:1000B000089581E090E002C0880F991F6A95E2F7E9
:1000C00097B3892B87BB089581E090E002C0880F29
:1000D000991F6A95E2F794B3892B84BB089581E058
:1000E00090E002C0880F991F6A95E2F791B3892BBF
:1000F00081BB089541113AC08230A9F018F48130D3
:1001000031F008958330D9F0843029F1089581E0E9
:1001100090E002C0880F991F6A95E2F780959AB324
:1001200089238ABB089581E090E002C0880F991F5F
:100130006A95E2F7809597B3892387BB089581E09C
:1001400090E002C0880F991F6A95E2F7809594B3FA
:10015000892384BB089581E090E002C0880F991F35
:100160006A95E2F7809591B3892381BB0895413068
:10017000B9F58230A1F018F4813031F00895833060
:10018000C9F0843011F1089581E090E002C0880F39
:10019000991F6A95E2F79BB3892B8BBB089581E089
:1001A00090E002C0880F991F6A95E2F798B3892BF7
:1001B00088BB089581E090E002C0880F991F6A957E
:1001C000E2F795B3892B85BB089581E090E002C0EA
:1001D000880F991F6A95E2F792B3892B82BB089525
:1001E00041113AC08230A9F018F4813031F00895FD
:1001F0008330D9F0843029F1089581E090E002C085
:10020000880F991F6A95E2F780959BB389238BBB72
:10021000089581E090E002C0880F991F6A95E2F787
:10022000809598B3892388BB089581E090E002C04F
:10023000880F991F6A95E2F7809595B3892385BB4E
:10024000089581E090E002C0880F991F6A95E2F757
:10025000809592B3892382BB0895823059F018F4B7
:10026000813031F00895833039F0843039F00895C9
:100270006ABB089567BB089564BB089561BB089588
:10028000823059F018F4813031F00895833039F01C
:10029000843039F008956BBB089568BB089565BB41
:1002A000089562BB0895FF24F39403E010E0D0E0CA
:1002B00061E081E00E942D0141E060E083E00E9466
:1002C000410041E061E073E080E090E00E947E0147
:1002D000C0E011C04C2F6F2D702F812F9D2F0E94D9
:1002E000A0012FE38DE093E0215080409040E1F7A2
:1002F00000C00000CF5FCA3068F3EACF911110C090
:10030000413031F440E0682F872F0E94B7000895F4
:10031000411115C041E0682F872F0E94B700089552
:10032000913069F4413029F4682F872F0E94B7007B
:100330000895411104C0682F872F0E94B7000895C7
:10034000CF93DF93CDB7DEB72A970FB6F894DEBF11
:100350000FBECDBF862F2AE0E0E6F0E0DE01119669
:1003600001900D922A95E1F791110AC0E1E0F0E0C9
:10037000EC0FFD1FE40FF11D60810E9440010CC0D5
:10038000913051F4E1E0F0E0EC0FFD1FE40FF11DBE
:10039000608160950E9440012A960FB6F894DEBFF6
:0E03A0000FBECDBFDF91CF910895F894FFCF2F
:0A03AE003F065B4F666D7D077F6F11
:00000001FF
