S00B00004144432E7372656351
S11300000C942A000C943F000C943F000C943F0085
S11300100C943F000C943F000C943F000C943F0060
S11300200C943F000C943F000C943F000C943F0050
S11300300C943F000C943F000C943F000C943F0040
S11300400C943F000C943F000C943F000C943F0030
S11300500C943F0011241FBECFE5D8E0DEBFCDBF16
S113006010E0A0E6B0E0E4E3F5E002C005900D92F4
S1130070AA36B107D9F70E944A020C9498020C944C
S1130080000086B1877F86B987B18F7D87B987B134
S1130090806487B987B18F7787B986B18E7F86B937
S11300A086B1826086B986B1846086B986B180687B
S11300B086B9089597B1907E97B997B1892B87B97E
S11300C086B1806486B986B182958F70E1F386B17A
S11300D0806186B984B195B10895CF93C82F41E06A
S11300E060E083E00E94AE0140E061E083E00E94B2
S11300F0AE016C2F84E00E94370241E062E083E0AD
S11301000E94AE0189EF90E00197F1F700C0000072
S113011040E062E083E00E94AE01CF910895CF9366
S1130120C82F40E060E083E00E94AE0140E061E05F
S113013083E00E94AE016C2F84E00E94370241E00C
S113014062E083E00E94AE0189EF90E00197F1F74D
S113015000C0000040E062E083E00E94AE01CF9165
S113016008958FE097E20197F1F700C0000088E35B
S11301700E948F0089EF90E00197F1F700C0000022
S11301808FE00E948F0089EF90E00197F1F700C0A3
S1130190000081E00E948F0083EF91E00197F1F766
S11301A000C0000008950F931F93CF938C01C0E00B
S11301B003C00E946D00CF5FF801EC0FF11D808138
S11301C08111F7CFCF911F910F910895882329F0C2
S11301D0813021F490E4960F01C0962F80E8890FB6
S11301E00E948F0008950F931F93CF93DF93CDB791
S11301F0DEB72A970FB6F894DEBF0FBECDBF00E07E
S113020010E001C08A01A8014F5F5F4FE1E0F0E018
S1130210EC0FFD1FE00FF11F9DEC899F912D112420
S1130220969596959695392F330F232F220F220FEB
S1130230230F821B805D8083892F9111E3CF0BC034
S1130240E1E0F0E0EC0FFD1FE00FF11F80810E9460
S11302506D000150110911239CF72A960FB6F894EA
S1130260DEBF0FBECDBFDF91CF911F910F910895D7
S11302704130B9F58230A1F018F4813031F008959D
S11302808330C9F0843011F1089581E090E002C018
S1130290880F991F6A95E2F79AB3892B8ABB089550
S11302A081E090E002C0880F991F6A95E2F797B346
S11302B0892B87BB089581E090E002C0880F991FC5
S11302C06A95E2F794B3892B84BB089581E090E0AA
S11302D002C0880F991F6A95E2F791B3892B81BBFD
S11302E0089541113AC08230A9F018F4813031F0F8
S11302F008958330D9F0843029F1089581E090E0A5
S113030002C0880F991F6A95E2F780959AB38923F2
S11303108ABB089581E090E002C0880F991F6A9516
S1130320E2F7809597B3892387BB089581E090E035
S113033002C0880F991F6A95E2F7809594B38923C8
S113034084BB089581E090E002C0880F991F6A95EC
S1130350E2F7809591B3892381BB08954130B9F5C3
S11303608230A1F018F4813031F008958330C9F05F
S1130370843011F1089581E090E002C0880F991F44
S11303806A95E2F79BB3892B8BBB089581E090E0DB
S113039002C0880F991F6A95E2F798B3892B88BB2E
S11303A0089581E090E002C0880F991F6A95E2F7F2
S11303B095B3892B85BB089581E090E002C0880F36
S11303C0991F6A95E2F792B3892B82BB0895411174
S11303D03AC08230A9F018F4813031F008958330A6
S11303E0D9F0843029F1089581E090E002C0880FAB
S11303F0991F6A95E2F780959BB389238BBB089577
S113040081E090E002C0880F991F6A95E2F7809519
S113041098B3892388BB089581E090E002C0880FD7
S1130420991F6A95E2F7809595B3892385BB089552
S113043081E090E002C0880F991F6A95E2F78095E9
S113044092B3892382BB0895823059F018F4813025
S113045031F00895833039F0843039F008956ABB5F
S1130460089567BB089564BB089561BB0895823005
S113047059F018F4813031F00895833039F0843024
S113048039F008956BBB089568BB089565BB089562
S113049062BB089540E060E081E00E94380161E0C1
S11304A084E00E94240267E083E00E9424020E9408
S11304B041000E94B10080E00E945A009C01A8E81B
S11304C0B3E10E9489029B01AC01012E1AE056950A
S11304D04795379527951A95D1F7102DADECBCECBF
S11304E00E948902EC01D695C795D695C795D695F5
S11304F0C79560E080E00E94E60080E690E00E94FC
S1130500D30060E081E00E94E6008C2F0E94F3009B
S1130510D2CFA29FB001B39FC001A39F700D811DD4
S11305201124911DB29F700D811D1124911D0895F8
S1070530F894FFCF69
S10D053454656D702069733A2000CD
S9030000FC
